{
  "contractName": "ArtCopyright",
  "abi": [
    {
      "inputs": [],
      "stateMutability": "nonpayable",
      "type": "constructor"
    },
    {
      "anonymous": false,
      "inputs": [
        {
          "indexed": true,
          "internalType": "address",
          "name": "owner",
          "type": "address"
        },
        {
          "indexed": true,
          "internalType": "address",
          "name": "approved",
          "type": "address"
        },
        {
          "indexed": true,
          "internalType": "uint256",
          "name": "tokenId",
          "type": "uint256"
        }
      ],
      "name": "Approval",
      "type": "event"
    },
    {
      "anonymous": false,
      "inputs": [
        {
          "indexed": true,
          "internalType": "address",
          "name": "owner",
          "type": "address"
        },
        {
          "indexed": true,
          "internalType": "address",
          "name": "operator",
          "type": "address"
        },
        {
          "indexed": false,
          "internalType": "bool",
          "name": "approved",
          "type": "bool"
        }
      ],
      "name": "ApprovalForAll",
      "type": "event"
    },
    {
      "anonymous": false,
      "inputs": [
        {
          "indexed": true,
          "internalType": "uint256",
          "name": "artworkId",
          "type": "uint256"
        },
        {
          "indexed": true,
          "internalType": "address",
          "name": "creator",
          "type": "address"
        },
        {
          "indexed": false,
          "internalType": "uint256",
          "name": "price",
          "type": "uint256"
        }
      ],
      "name": "ArtworkRegistered",
      "type": "event"
    },
    {
      "anonymous": false,
      "inputs": [
        {
          "indexed": true,
          "internalType": "uint256",
          "name": "artworkId",
          "type": "uint256"
        },
        {
          "indexed": true,
          "internalType": "address",
          "name": "from",
          "type": "address"
        },
        {
          "indexed": true,
          "internalType": "address",
          "name": "to",
          "type": "address"
        },
        {
          "indexed": false,
          "internalType": "uint256",
          "name": "price",
          "type": "uint256"
        }
      ],
      "name": "ArtworkSold",
      "type": "event"
    },
    {
      "anonymous": false,
      "inputs": [
        {
          "indexed": true,
          "internalType": "uint256",
          "name": "artworkId",
          "type": "uint256"
        },
        {
          "indexed": false,
          "internalType": "uint256",
          "name": "oldPrice",
          "type": "uint256"
        },
        {
          "indexed": false,
          "internalType": "uint256",
          "name": "newPrice",
          "type": "uint256"
        }
      ],
      "name": "PriceUpdated",
      "type": "event"
    },
    {
      "anonymous": false,
      "inputs": [
        {
          "indexed": true,
          "internalType": "address",
          "name": "from",
          "type": "address"
        },
        {
          "indexed": true,
          "internalType": "address",
          "name": "to",
          "type": "address"
        },
        {
          "indexed": true,
          "internalType": "uint256",
          "name": "tokenId",
          "type": "uint256"
        }
      ],
      "name": "Transfer",
      "type": "event"
    },
    {
      "inputs": [
        {
          "internalType": "address",
          "name": "to",
          "type": "address"
        },
        {
          "internalType": "uint256",
          "name": "tokenId",
          "type": "uint256"
        }
      ],
      "name": "approve",
      "outputs": [],
      "stateMutability": "nonpayable",
      "type": "function"
    },
    {
      "inputs": [
        {
          "internalType": "address",
          "name": "owner",
          "type": "address"
        }
      ],
      "name": "balanceOf",
      "outputs": [
        {
          "internalType": "uint256",
          "name": "",
          "type": "uint256"
        }
      ],
      "stateMutability": "view",
      "type": "function",
      "constant": true
    },
    {
      "inputs": [
        {
          "internalType": "uint256",
          "name": "tokenId",
          "type": "uint256"
        }
      ],
      "name": "getApproved",
      "outputs": [
        {
          "internalType": "address",
          "name": "",
          "type": "address"
        }
      ],
      "stateMutability": "view",
      "type": "function",
      "constant": true
    },
    {
      "inputs": [
        {
          "internalType": "address",
          "name": "owner",
          "type": "address"
        },
        {
          "internalType": "address",
          "name": "operator",
          "type": "address"
        }
      ],
      "name": "isApprovedForAll",
      "outputs": [
        {
          "internalType": "bool",
          "name": "",
          "type": "bool"
        }
      ],
      "stateMutability": "view",
      "type": "function",
      "constant": true
    },
    {
      "inputs": [],
      "name": "name",
      "outputs": [
        {
          "internalType": "string",
          "name": "",
          "type": "string"
        }
      ],
      "stateMutability": "view",
      "type": "function",
      "constant": true
    },
    {
      "inputs": [
        {
          "internalType": "uint256",
          "name": "tokenId",
          "type": "uint256"
        }
      ],
      "name": "ownerOf",
      "outputs": [
        {
          "internalType": "address",
          "name": "",
          "type": "address"
        }
      ],
      "stateMutability": "view",
      "type": "function",
      "constant": true
    },
    {
      "inputs": [
        {
          "internalType": "address",
          "name": "from",
          "type": "address"
        },
        {
          "internalType": "address",
          "name": "to",
          "type": "address"
        },
        {
          "internalType": "uint256",
          "name": "tokenId",
          "type": "uint256"
        }
      ],
      "name": "safeTransferFrom",
      "outputs": [],
      "stateMutability": "nonpayable",
      "type": "function"
    },
    {
      "inputs": [
        {
          "internalType": "address",
          "name": "from",
          "type": "address"
        },
        {
          "internalType": "address",
          "name": "to",
          "type": "address"
        },
        {
          "internalType": "uint256",
          "name": "tokenId",
          "type": "uint256"
        },
        {
          "internalType": "bytes",
          "name": "data",
          "type": "bytes"
        }
      ],
      "name": "safeTransferFrom",
      "outputs": [],
      "stateMutability": "nonpayable",
      "type": "function"
    },
    {
      "inputs": [
        {
          "internalType": "address",
          "name": "operator",
          "type": "address"
        },
        {
          "internalType": "bool",
          "name": "approved",
          "type": "bool"
        }
      ],
      "name": "setApprovalForAll",
      "outputs": [],
      "stateMutability": "nonpayable",
      "type": "function"
    },
    {
      "inputs": [
        {
          "internalType": "bytes4",
          "name": "interfaceId",
          "type": "bytes4"
        }
      ],
      "name": "supportsInterface",
      "outputs": [
        {
          "internalType": "bool",
          "name": "",
          "type": "bool"
        }
      ],
      "stateMutability": "view",
      "type": "function",
      "constant": true
    },
    {
      "inputs": [],
      "name": "symbol",
      "outputs": [
        {
          "internalType": "string",
          "name": "",
          "type": "string"
        }
      ],
      "stateMutability": "view",
      "type": "function",
      "constant": true
    },
    {
      "inputs": [
        {
          "internalType": "uint256",
          "name": "tokenId",
          "type": "uint256"
        }
      ],
      "name": "tokenURI",
      "outputs": [
        {
          "internalType": "string",
          "name": "",
          "type": "string"
        }
      ],
      "stateMutability": "view",
      "type": "function",
      "constant": true
    },
    {
      "inputs": [
        {
          "internalType": "address",
          "name": "from",
          "type": "address"
        },
        {
          "internalType": "address",
          "name": "to",
          "type": "address"
        },
        {
          "internalType": "uint256",
          "name": "tokenId",
          "type": "uint256"
        }
      ],
      "name": "transferFrom",
      "outputs": [],
      "stateMutability": "nonpayable",
      "type": "function"
    },
    {
      "inputs": [
        {
          "internalType": "uint256",
          "name": "artworkId",
          "type": "uint256"
        },
        {
          "internalType": "string",
          "name": "title",
          "type": "string"
        },
        {
          "internalType": "string",
          "name": "description",
          "type": "string"
        },
        {
          "internalType": "uint256",
          "name": "price",
          "type": "uint256"
        }
      ],
      "name": "registerArtwork",
      "outputs": [
        {
          "internalType": "uint256",
          "name": "",
          "type": "uint256"
        }
      ],
      "stateMutability": "nonpayable",
      "type": "function"
    },
    {
      "inputs": [
        {
          "internalType": "uint256",
          "name": "artworkId",
          "type": "uint256"
        }
      ],
      "name": "purchaseArtwork",
      "outputs": [],
      "stateMutability": "payable",
      "type": "function",
      "payable": true
    },
    {
      "inputs": [
        {
          "internalType": "uint256",
          "name": "artworkId",
          "type": "uint256"
        }
      ],
      "name": "getArtwork",
      "outputs": [
        {
          "internalType": "string",
          "name": "title",
          "type": "string"
        },
        {
          "internalType": "string",
          "name": "description",
          "type": "string"
        },
        {
          "internalType": "uint256",
          "name": "price",
          "type": "uint256"
        },
        {
          "internalType": "address",
          "name": "creator",
          "type": "address"
        },
        {
          "internalType": "uint256",
          "name": "createTime",
          "type": "uint256"
        },
        {
          "internalType": "bool",
          "name": "isForSale",
          "type": "bool"
        }
      ],
      "stateMutability": "view",
      "type": "function",
      "constant": true
    }
  ],
  "bytecode": "0x60806040523480156200001157600080fd5b506040518060400160405280600c81526020016b105c9d10dbdc1e5c9a59da1d60a21b8152506040518060400160405280600381526020016210549560ea1b815250816000908162000064919062000121565b50600162000073828262000121565b505050620001ed565b634e487b7160e01b600052604160045260246000fd5b600181811c90821680620000a757607f821691505b602082108103620000c857634e487b7160e01b600052602260045260246000fd5b50919050565b601f8211156200011c57600081815260208120601f850160051c81016020861015620000f75750805b601f850160051c820191505b81811015620001185782815560010162000103565b5050505b505050565b81516001600160401b038111156200013d576200013d6200007c565b62000155816200014e845462000092565b84620000ce565b602080601f8311600181146200018d5760008415620001745750858301515b600019600386901b1c1916600185901b17855562000118565b600085815260208120601f198616915b82811015620001be578886015182559484019460019091019084016200019d565b5085821015620001dd5787850151600019600388901b60f8161c191681555b5050505050600190811b01905550565b611b6680620001fd6000396000f3fe6080604052600436106100f35760003560e01c80636352211e1161008a578063a22cb46511610059578063a22cb465146102b1578063b88d4fde146102d1578063c87b56dd146102f1578063e985e9c51461031157600080fd5b80636352211e1461022e57806370a082311461024e57806395d89b411461027c57806399f015911461029157600080fd5b80631287fb92116100c65780631287fb92146101a9578063167ddf6e146101bc57806323b872dd146101ee57806342842e0e1461020e57600080fd5b806301ffc9a7146100f857806306fdde031461012d578063081812fc1461014f578063095ea7b314610187575b600080fd5b34801561010457600080fd5b506101186101133660046114e3565b61035a565b60405190151581526020015b60405180910390f35b34801561013957600080fd5b506101426103ac565b6040516101249190611550565b34801561015b57600080fd5b5061016f61016a366004611563565b61043e565b6040516001600160a01b039091168152602001610124565b34801561019357600080fd5b506101a76101a2366004611598565b610465565b005b6101a76101b7366004611563565b61057f565b3480156101c857600080fd5b506101dc6101d7366004611563565b610784565b604051610124969594939291906115c2565b3480156101fa57600080fd5b506101a7610209366004611618565b610962565b34801561021a57600080fd5b506101a7610229366004611618565b610993565b34801561023a57600080fd5b5061016f610249366004611563565b6109ae565b34801561025a57600080fd5b5061026e610269366004611654565b610a0e565b604051908152602001610124565b34801561028857600080fd5b50610142610a94565b34801561029d57600080fd5b5061026e6102ac36600461171b565b610aa3565b3480156102bd57600080fd5b506101a76102cc366004611790565b610c1e565b3480156102dd57600080fd5b506101a76102ec3660046117cc565b610c2d565b3480156102fd57600080fd5b5061014261030c366004611563565b610c65565b34801561031d57600080fd5b5061011861032c366004611848565b6001600160a01b03918216600090815260056020908152604080832093909416825291909152205460ff1690565b60006001600160e01b031982166380ac58cd60e01b148061038b57506001600160e01b03198216635b5e139f60e01b145b806103a657506301ffc9a760e01b6001600160e01b03198316145b92915050565b6060600080546103bb9061187b565b80601f01602080910402602001604051908101604052809291908181526020018280546103e79061187b565b80156104345780601f1061040957610100808354040283529160200191610434565b820191906000526020600020905b81548152906001019060200180831161041757829003601f168201915b5050505050905090565b600061044982610cd9565b506000908152600460205260409020546001600160a01b031690565b6000610470826109ae565b9050806001600160a01b0316836001600160a01b0316036104e25760405162461bcd60e51b815260206004820152602160248201527f4552433732313a20617070726f76616c20746f2063757272656e74206f776e656044820152603960f91b60648201526084015b60405180910390fd5b336001600160a01b03821614806104fe57506104fe813361032c565b6105705760405162461bcd60e51b815260206004820152603d60248201527f4552433732313a20617070726f76652063616c6c6572206973206e6f7420746f60448201527f6b656e206f776e6572206f7220617070726f76656420666f7220616c6c00000060648201526084016104d9565b61057a8383610d3b565b505050565b6000818152600260205260409020546001600160a01b03166105dc5760405162461bcd60e51b8152602060048201526016602482015275105c9d1ddbdc9ac8191bd95cc81b9bdd08195e1a5cdd60521b60448201526064016104d9565b60008181526006602081905260409091209081015460ff166106405760405162461bcd60e51b815260206004820152601760248201527f417274776f726b206973206e6f7420666f722073616c6500000000000000000060448201526064016104d9565b806003015434101561068b5760405162461bcd60e51b8152602060048201526014602482015273125b9cdd59999a58da595b9d081c185e5b595b9d60621b60448201526064016104d9565b6000610696836109ae565b90506001600160a01b03811633036106f05760405162461bcd60e51b815260206004820152601b60248201527f43616e6e6f742062757920796f7572206f776e20617274776f726b000000000060448201526064016104d9565b6106fb813385610da9565b6040516001600160a01b038216903480156108fc02916000818181858888f19350505050158015610730573d6000803e3d6000fd5b5060068201805460ff1916905560405134815233906001600160a01b0383169085907f0634626e616f8a7485091cf43f024011ba5d9b8fcbe8eac44a3efe20f7dfb6049060200160405180910390a4505050565b6060806000806000806107ae876000908152600260205260409020546001600160a01b0316151590565b6107f35760405162461bcd60e51b8152602060048201526016602482015275105c9d1ddbdc9ac8191bd95cc81b9bdd08195e1a5cdd60521b60448201526064016104d9565b600087815260066020819052604090912060038101546004820154600583015493830154600184018054949590946002870194936001600160a01b03169260ff169086906108409061187b565b80601f016020809104026020016040519081016040528092919081815260200182805461086c9061187b565b80156108b95780601f1061088e576101008083540402835291602001916108b9565b820191906000526020600020905b81548152906001019060200180831161089c57829003601f168201915b505050505095508480546108cc9061187b565b80601f01602080910402602001604051908101604052809291908181526020018280546108f89061187b565b80156109455780601f1061091a57610100808354040283529160200191610945565b820191906000526020600020905b81548152906001019060200180831161092857829003601f168201915b505050505094509650965096509650965096505091939550919395565b61096c3382610f0d565b6109885760405162461bcd60e51b81526004016104d9906118b5565b61057a838383610da9565b61057a83838360405180602001604052806000815250610c2d565b6000818152600260205260408120546001600160a01b0316806103a65760405162461bcd60e51b8152602060048201526018602482015277115490cdcc8c4e881a5b9d985b1a59081d1bdad95b88125160421b60448201526064016104d9565b60006001600160a01b038216610a785760405162461bcd60e51b815260206004820152602960248201527f4552433732313a2061646472657373207a65726f206973206e6f7420612076616044820152683634b21037bbb732b960b91b60648201526084016104d9565b506001600160a01b031660009081526003602052604090205490565b6060600180546103bb9061187b565b6000848152600660205260408120600401546001600160a01b031615610b0b5760405162461bcd60e51b815260206004820152601960248201527f417274776f726b20494420616c7265616479206578697374730000000000000060448201526064016104d9565b610b153386610f8b565b6040805160e0810182528681526020808201878152828401879052606083018690523360808401524260a0840152600160c0840181905260008a81526006909352939091208251815590519192909190820190610b729082611950565b5060408201516002820190610b879082611950565b506060820151600382015560808201516004820180546001600160a01b0319166001600160a01b0390921691909117905560a0820151600582015560c0909101516006909101805460ff1916911515919091179055604051828152339086907f9782a9cbd630851618024bd1d1b1b6a0e689a6b69eda655a8353ee7ceaba1c289060200160405180910390a350835b949350505050565b610c29338383610fa5565b5050565b610c373383610f0d565b610c535760405162461bcd60e51b81526004016104d9906118b5565b610c5f84848484611073565b50505050565b6060610c7082610cd9565b6000610c8760408051602081019091526000815290565b90506000815111610ca75760405180602001604052806000815250610cd2565b80610cb1846110a6565b604051602001610cc2929190611a10565b6040516020818303038152906040525b9392505050565b6000818152600260205260409020546001600160a01b0316610d385760405162461bcd60e51b8152602060048201526018602482015277115490cdcc8c4e881a5b9d985b1a59081d1bdad95b88125160421b60448201526064016104d9565b50565b600081815260046020526040902080546001600160a01b0319166001600160a01b0384169081179091558190610d70826109ae565b6001600160a01b03167f8c5be1e5ebec7d5bd14f71427d1e84f3dd0314c0f7b2291e5b200ac8c7c3b92560405160405180910390a45050565b826001600160a01b0316610dbc826109ae565b6001600160a01b031614610de25760405162461bcd60e51b81526004016104d990611a3f565b6001600160a01b038216610e445760405162461bcd60e51b8152602060048201526024808201527f4552433732313a207472616e7366657220746f20746865207a65726f206164646044820152637265737360e01b60648201526084016104d9565b826001600160a01b0316610e57826109ae565b6001600160a01b031614610e7d5760405162461bcd60e51b81526004016104d990611a3f565b600081815260046020908152604080832080546001600160a01b03199081169091556001600160a01b0387811680865260038552838620805460001901905590871680865283862080546001019055868652600290945282852080549092168417909155905184937fddf252ad1be2c89b69c2b068fc378daa952ba7f163c4a11628f55a4df523b3ef91a4505050565b600080610f19836109ae565b9050806001600160a01b0316846001600160a01b03161480610f6057506001600160a01b0380821660009081526005602090815260408083209388168352929052205460ff165b80610c165750836001600160a01b0316610f798461043e565b6001600160a01b031614949350505050565b610c29828260405180602001604052806000815250611139565b816001600160a01b0316836001600160a01b0316036110065760405162461bcd60e51b815260206004820152601960248201527f4552433732313a20617070726f766520746f2063616c6c65720000000000000060448201526064016104d9565b6001600160a01b03838116600081815260056020908152604080832094871680845294825291829020805460ff191686151590811790915591519182527f17307eab39ab6107e8899845ad3d59bd9653f200f220920489ca2b5937696c31910160405180910390a3505050565b61107e848484610da9565b61108a8484848461116c565b610c5f5760405162461bcd60e51b81526004016104d990611a84565b606060006110b38361126a565b600101905060008167ffffffffffffffff8111156110d3576110d361166f565b6040519080825280601f01601f1916602001820160405280156110fd576020820181803683370190505b5090508181016020015b600019016f181899199a1a9b1b9c1cb0b131b232b360811b600a86061a8153600a850494508461110757509392505050565b6111438383611342565b611150600084848461116c565b61057a5760405162461bcd60e51b81526004016104d990611a84565b60006001600160a01b0384163b1561126257604051630a85bd0160e11b81526001600160a01b0385169063150b7a02906111b0903390899088908890600401611ad6565b6020604051808303816000875af19250505080156111eb575060408051601f3d908101601f191682019092526111e891810190611b13565b60015b611248573d808015611219576040519150601f19603f3d011682016040523d82523d6000602084013e61121e565b606091505b5080516000036112405760405162461bcd60e51b81526004016104d990611a84565b805181602001fd5b6001600160e01b031916630a85bd0160e11b149050610c16565b506001610c16565b60008072184f03e93ff9f4daa797ed6e38ed64bf6a1f0160401b83106112a95772184f03e93ff9f4daa797ed6e38ed64bf6a1f0160401b830492506040015b6d04ee2d6d415b85acef810000000083106112d5576d04ee2d6d415b85acef8100000000830492506020015b662386f26fc1000083106112f357662386f26fc10000830492506010015b6305f5e100831061130b576305f5e100830492506008015b612710831061131f57612710830492506004015b60648310611331576064830492506002015b600a83106103a65760010192915050565b6001600160a01b0382166113985760405162461bcd60e51b815260206004820181905260248201527f4552433732313a206d696e7420746f20746865207a65726f206164647265737360448201526064016104d9565b6000818152600260205260409020546001600160a01b0316156113fd5760405162461bcd60e51b815260206004820152601c60248201527f4552433732313a20746f6b656e20616c7265616479206d696e7465640000000060448201526064016104d9565b6000818152600260205260409020546001600160a01b0316156114625760405162461bcd60e51b815260206004820152601c60248201527f4552433732313a20746f6b656e20616c7265616479206d696e7465640000000060448201526064016104d9565b6001600160a01b038216600081815260036020908152604080832080546001019055848352600290915280822080546001600160a01b0319168417905551839291907fddf252ad1be2c89b69c2b068fc378daa952ba7f163c4a11628f55a4df523b3ef908290a45050565b6001600160e01b031981168114610d3857600080fd5b6000602082840312156114f557600080fd5b8135610cd2816114cd565b60005b8381101561151b578181015183820152602001611503565b50506000910152565b6000815180845261153c816020860160208601611500565b601f01601f19169290920160200192915050565b602081526000610cd26020830184611524565b60006020828403121561157557600080fd5b5035919050565b80356001600160a01b038116811461159357600080fd5b919050565b600080604083850312156115ab57600080fd5b6115b48361157c565b946020939093013593505050565b60c0815260006115d560c0830189611524565b82810360208401526115e78189611524565b604084019790975250506001600160a01b039390931660608401526080830191909152151560a09091015292915050565b60008060006060848603121561162d57600080fd5b6116368461157c565b92506116446020850161157c565b9150604084013590509250925092565b60006020828403121561166657600080fd5b610cd28261157c565b634e487b7160e01b600052604160045260246000fd5b600067ffffffffffffffff808411156116a0576116a061166f565b604051601f8501601f19908116603f011681019082821181831017156116c8576116c861166f565b816040528093508581528686860111156116e157600080fd5b858560208301376000602087830101525050509392505050565b600082601f83011261170c57600080fd5b610cd283833560208501611685565b6000806000806080858703121561173157600080fd5b84359350602085013567ffffffffffffffff8082111561175057600080fd5b61175c888389016116fb565b9450604087013591508082111561177257600080fd5b5061177f878288016116fb565b949793965093946060013593505050565b600080604083850312156117a357600080fd5b6117ac8361157c565b9150602083013580151581146117c157600080fd5b809150509250929050565b600080600080608085870312156117e257600080fd5b6117eb8561157c565b93506117f96020860161157c565b925060408501359150606085013567ffffffffffffffff81111561181c57600080fd5b8501601f8101871361182d57600080fd5b61183c87823560208401611685565b91505092959194509250565b6000806040838503121561185b57600080fd5b6118648361157c565b91506118726020840161157c565b90509250929050565b600181811c9082168061188f57607f821691505b6020821081036118af57634e487b7160e01b600052602260045260246000fd5b50919050565b6020808252602d908201527f4552433732313a2063616c6c6572206973206e6f7420746f6b656e206f776e6560408201526c1c881bdc88185c1c1c9bdd9959609a1b606082015260800190565b601f82111561057a57600081815260208120601f850160051c810160208610156119295750805b601f850160051c820191505b8181101561194857828155600101611935565b505050505050565b815167ffffffffffffffff81111561196a5761196a61166f565b61197e81611978845461187b565b84611902565b602080601f8311600181146119b3576000841561199b5750858301515b600019600386901b1c1916600185901b178555611948565b600085815260208120601f198616915b828110156119e2578886015182559484019460019091019084016119c3565b5085821015611a005787850151600019600388901b60f8161c191681555b5050505050600190811b01905550565b60008351611a22818460208801611500565b835190830190611a36818360208801611500565b01949350505050565b60208082526025908201527f4552433732313a207472616e736665722066726f6d20696e636f72726563742060408201526437bbb732b960d91b606082015260800190565b60208082526032908201527f4552433732313a207472616e7366657220746f206e6f6e20455243373231526560408201527131b2b4bb32b91034b6b83632b6b2b73a32b960711b606082015260800190565b6001600160a01b0385811682528416602082015260408101839052608060608201819052600090611b0990830184611524565b9695505050505050565b600060208284031215611b2557600080fd5b8151610cd2816114cd56fea26469706673582212207f7f1ee44b6bab1f0a7524167cba9a84d03bd602cc79de2ed7bbbe12ee53495364736f6c63430008120033",
  "immutableReferences": {},
  "source": "// SPDX-License-Identifier:MIT\r\npragma solidity >=0.8.0 <0.9.0;\r\n\r\nimport \"@openzeppelin/contracts/token/ERC721/ERC721.sol\";\r\n\r\ncontract ArtCopyright is ERC721 {\r\n    // \r\n    struct Artwork {\r\n        uint256 artworkId;      // ID\r\n        string title;           // \r\n        string description;     // \r\n        uint256 price;         // \r\n        address creator;        // \r\n        uint256 createTime;     // \r\n        bool isForSale;        // \r\n    }\r\n\r\n    // \r\n    mapping(uint256 => Artwork) private _artworks;\r\n\r\n    // \r\n    event ArtworkRegistered(uint256 indexed artworkId, address indexed creator, uint256 price);\r\n    event ArtworkSold(uint256 indexed artworkId, address indexed from, address indexed to, uint256 price);\r\n    event PriceUpdated(uint256 indexed artworkId, uint256 oldPrice, uint256 newPrice);\r\n\r\n    // ERC721\"ArtCopyright\"\"ART\"ERC721\r\n    constructor() ERC721(\"ArtCopyright\", \"ART\") {}\r\n\r\n    // \r\n    function registerArtwork(\r\n        uint256 artworkId,\r\n        string memory title,\r\n        string memory description,\r\n        uint256 price\r\n    ) public returns (uint256) {\r\n        // artworkId\r\n        require(_artworks[artworkId].creator == address(0), \"Artwork ID already exists\");\r\n\r\n        // ERC721_safeMintmsg.senderartworkId\r\n        _safeMint(msg.sender, artworkId);\r\n\r\n        _artworks[artworkId] = Artwork({\r\n            artworkId: artworkId,\r\n            title: title,\r\n            description: description,\r\n            price: price,\r\n            creator: msg.sender,\r\n            createTime: block.timestamp,\r\n            isForSale: true\r\n        });\r\n\r\n        emit ArtworkRegistered(artworkId, msg.sender, price);\r\n        return artworkId;\r\n    }\r\n\r\n    // \r\n    function purchaseArtwork(uint256 artworkId) public payable {\r\n        require(_exists(artworkId), \"Artwork does not exist\");\r\n        Artwork storage artwork = _artworks[artworkId];\r\n        require(artwork.isForSale, \"Artwork is not for sale\");\r\n        require(msg.value >= artwork.price, \"Insufficient payment\");\r\n\r\n        // ERC721ownerOfartworkIdseller\r\n        address seller = ownerOf(artworkId);\r\n        require(msg.sender!= seller, \"Cannot buy your own artwork\");\r\n\r\n        // \r\n        // ERC721_transfersellermsg.senderID\r\n        _transfer(seller, msg.sender, artworkId);\r\n\r\n        // \r\n        payable(seller).transfer(msg.value);\r\n\r\n        // \r\n        artwork.isForSale = false;\r\n\r\n        emit ArtworkSold(artworkId, seller, msg.sender, msg.value);\r\n    }\r\n\r\n    // \r\n    function getArtwork(uint256 artworkId) public view returns (\r\n        string memory title,\r\n        string memory description,\r\n        uint256 price,\r\n        address creator,\r\n        uint256 createTime,\r\n        bool isForSale\r\n    ) {\r\n        require(_exists(artworkId), \"Artwork does not exist\");\r\n        Artwork storage artwork = _artworks[artworkId];\r\n        return (\r\n            artwork.title,\r\n            artwork.description,\r\n            artwork.price,\r\n            artwork.creator,\r\n            artwork.createTime,\r\n            artwork.isForSale\r\n        );\r\n    }\r\n}",
  "sourcePath": "D:\\Merkle Tree\\Go\\GOitem\\src\\ac\\blockchain\\contracts\\ArtCopyright.sol",
  "compiler": {
    "name": "solc",
    "version": "0.8.18+commit.87f61d96.Emscripten.clang"
  },
  "schemaVersion": "3.4.16",
  "updatedAt": "2025-07-15T10:44:33.370Z",
  "networkType": "ethereum",
  "devdoc": {
    "events": {
      "Approval(address,address,uint256)": {
        "details": "Emitted when `owner` enables `approved` to manage the `tokenId` token."
      },
      "ApprovalForAll(address,address,bool)": {
        "details": "Emitted when `owner` enables or disables (`approved`) `operator` to manage all of its assets."
      },
      "Transfer(address,address,uint256)": {
        "details": "Emitted when `tokenId` token is transferred from `from` to `to`."
      }
    },
    "kind": "dev",
    "methods": {
      "approve(address,uint256)": {
        "details": "See {IERC721-approve}."
      },
      "balanceOf(address)": {
        "details": "See {IERC721-balanceOf}."
      },
      "getApproved(uint256)": {
        "details": "See {IERC721-getApproved}."
      },
      "isApprovedForAll(address,address)": {
        "details": "See {IERC721-isApprovedForAll}."
      },
      "name()": {
        "details": "See {IERC721Metadata-name}."
      },
      "ownerOf(uint256)": {
        "details": "See {IERC721-ownerOf}."
      },
      "safeTransferFrom(address,address,uint256)": {
        "details": "See {IERC721-safeTransferFrom}."
      },
      "safeTransferFrom(address,address,uint256,bytes)": {
        "details": "See {IERC721-safeTransferFrom}."
      },
      "setApprovalForAll(address,bool)": {
        "details": "See {IERC721-setApprovalForAll}."
      },
      "supportsInterface(bytes4)": {
        "details": "See {IERC165-supportsInterface}."
      },
      "symbol()": {
        "details": "See {IERC721Metadata-symbol}."
      },
      "tokenURI(uint256)": {
        "details": "See {IERC721Metadata-tokenURI}."
      },
      "transferFrom(address,address,uint256)": {
        "details": "See {IERC721-transferFrom}."
      }
    },
    "version": 1
  },
  "userdoc": {
    "kind": "user",
    "methods": {},
    "version": 1
  }
}